:100000000C945F000C9487000C9487000C9487007C
:100010000C9487000C9487000C9487000C94510476
:100020000C9487000C9487000C9487000C94870034
:100030000C9487000C9487000C9487000C94870024
:100040000C94D2040C9487000C9487000C948700C5
:100050000C9487000C9487000C9487000C94870004
:100060000C9487000C9487000000000024002700F7
:100070002A000200000000250028002B00040404D0
:100080000404040404020202020202030303030341
:10009000030102040810204080010204081020011E
:1000A0000204081020000000080002010000030400
:1000B00007000000000000000000022F5E2F112446
:1000C0001FBECFEFD8E0DEBFCDBF11E0A0E0B1E0B2
:1000D000EAEDF2E602C005900D92A432B107D9F71D
:1000E00021E0A4E2B1E001C01D92A935B207E1F719
:1000F00010E0CEE5D0E004C02197FE010E9426303A
:10010000CD35D107C9F70E941C050C9460310C94C1
:10011000000090E0FC01EB55FF4F2491FC01EF56ED
:10012000FF4F3491FC01E358FF4FE491EE23B9F007
:10013000222339F02330F1F098F4213009F12230F4
:1001400019F1F0E0EE0FFF1FED58FF4FA591B491AC
:100150008FB7F894EC9130953E233C938FBF089570
:100160002730A9F02830C9F0243059F78091800059
:100170008F7D03C0809180008F7780938000E1CFD6
:1001800084B58F7784BDDDCF84B58F7DFBCF809123
:10019000B0008F778093B000D4CF8091B0008F7D76
:1001A000F9CFCF93DF9390E0FC01EF56FF4F2491FE
:1001B00083589F4FFC0184918823D1F090E0880FF1
:1001C000991FFC01E859FF4FA591B491FC01ED582E
:1001D000FF4FC591D49161110EC09FB7F8948C91D7
:1001E000E22FE0958E238C932881E223E8839FBF42
:1001F000DF91CF9108958FB7F894EC91E22BEC93B7
:100200008FBFF6CF3FB7F8948091350190913601BA
:10021000A0913701B091380126B5A89B05C02F3FAA
:1002200019F00196A11DB11D3FBFBA2FA92F982F1C
:100230008827BC01CD01620F711D811D911D42E017
:10024000660F771F881F991F4A95D1F708950F935E
:100250001F93CF93DF93CDB7DEB729970FB6F894EE
:10026000DEBF0FBECDBF0E94020100914E01109172
:100270004F012091500130915101601B710B820B95
:10028000930B623371058105910568F3F8948091B1
:100290004401909145019A838983E0914801F0914E
:1002A0004901DF0111968081898790914001E09199
:1002B0005201F091530180915401992309F445C0F2
:1002C0009081982B98879081809589238F838F8147
:1002D0008C8388E08B8358856F8149853B812C8195
:1002E00089819A81508347FD252F3A952083262FB7
:1002F00039F0441F00C000006083000000C0F2CF4E
:1003000038E04D9160830000019761F7F09353014D
:10031000E093520149873B832C839A8389837894A5
:100320000E94020160934E0170934F01809350012F
:100330009093510129960FB6F894DEBF0FBECDBF42
:10034000DF91CF911F910F9108959081982B9887FD
:100350009081809589238F838F818E8388E08D8320
:1003600058856F8149853D812E8189819A8150838D
:1003700047FD252F00C000C0208300C000C000C082
:1003800000C000C060830000262F3A9541F0441F52
:10039000000000C000C000C000C000C0E8CF38E0CE
:1003A0004D9100C0608300C0019709F7F09353019D
:1003B000E093520149873D832E83AFCF8F929F9266
:1003C000AF92BF92CF92DF92EF92FF924B015C010E
:1003D0000E9402016B017C010E9402016C197D09DF
:1003E0008E099F09683E734081059105A8F321E0BD
:1003F000821A9108A108B10888EEC80E83E0D81EC1
:10040000E11CF11C81149104A104B10429F7FF90AF
:10041000EF90DF90CF90BF90AF909F908F90089516
:100420002F923F924F925F926F927F928F929F9204
:10043000AF92BF92CF92DF92EF92FF920F931F93F2
:10044000CF93DF9300D000D01F92CDB7DEB7282E18
:100450006A017B014801590110E000E080914201EE
:10046000909143010817190708F079C0E0912E0117
:10047000F0912F01EE0FFF1FEE0FFF1FE95FFE4F00
:100480004081518162817381CB01AA27BB27898377
:100490009A83AB83BC83E981452E562E672E772441
:1004A000F42D342EA0914701AA2361F08A9FF00118
:1004B0001124EF2FA49D20011124F52DA49F90015C
:1004C0001124332E70904D01209148013091490143
:1004D00080914A01781226C0C801880F991F800FA9
:1004E000911F280F391F80914A01820F932F911D70
:1004F000DC01EC9380914B01820F932F911DDC0165
:10050000FC9380914C01280F311DF90130828091BC
:10051000480190914901892B11F00E9427010F5F3A
:100520001F4F9CCFC801880F991F880F991F280F54
:10053000391F472F552766277727AA2351F08A2F7F
:1005400090E0849F2001859F500C949F500C1124B3
:10055000452DC901870D911DDC014C93C4CFC50108
:10056000B4010E946E2F2B013C01809100012816DE
:1005700041F18F3F09F486C080912E0190912F01A7
:100580000196873091050CF03AC190932F0180932A
:100590002E010F900F900F900F900F90DF91CF9141
:1005A0001F910F91FF90EF90DF90CF90BF90AF9091
:1005B0009F908F907F906F905F904F903F902F9083
:1005C0000895E2E7F0E0149117FDD6CF61E0822DA7
:1005D0000E94D100112319F0123009F0CDC068E457
:1005E00078EE81E090E0A70196010E94FC2F49017E
:1005F0005A01F1E08F1A9108A108B108112309F4FA
:100600001DC1123009F011C12FEF82169104A1040F
:10061000B10409F00CF410C164E274EF80E090E0E2
:10062000A70196010E94FC2F49015A0181E0881A16
:100630009108A108B10895E08091B100887F892BCD
:100640008093B1002FEF3FEFA901411451046104E1
:10065000710409F018C1113009F4AFC0123009F467
:10066000BEC0111189CF87BC20932A0130932B0182
:1006700040932C0150932D0180916E0082608093F5
:100680006E007ACF20920001E2E7F0E014911F3F64
:1006900009F472CF113041F150F0123009F446C024
:1006A00017FD6ACF61E0822D0E94D10095CF14BC66
:1006B00015BC84B5826084BD85B5816085BD822D01
:1006C00090E0FC01E358FF4FE491F0E0EE0FFF1FD4
:1006D000ED58FF4F25913491FC01EF56FF4FE49107
:1006E000E093250110E072CF1092800010928100FB
:1006F0008091810088608093810080918100816079
:1007000080938100822D90E0FC01E358FF4FE4913B
:10071000F0E0EE0FFF1FED58FF4F25913491FC01E3
:10072000EF56FF4FE491E093240150CF1092B000B8
:100730001092B1008091B00082608093B0008091EF
:10074000B10081608093B100822D90E0FC01E358FC
:10075000FF4FE491F0E0EE0FFF1FED58FF4F2591A2
:10076000349130933A0120933901FC01EF56FF4F49
:10077000E491E0933B012ACF60E072E18AE790E0E8
:10078000A70196010E94FC2F49015A0191E0891AA4
:100790009108A108B108113009F054CF809181006F
:1007A000887F8160809381002FEF3FEFA901411482
:1007B00051046104710409F066C09092890080922E
:1007C00088002093260130932701409328015093FD
:1007D000290180916F00826080936F00CDCE80925E
:1007E000B30020933C0130933D0140933E01509370
:1007F0003F0180917000826080937000BDCE1092A6
:100800002F0110922E01C5CE62E17AE780E090E0E0
:10081000A70196010E94FC2F49015A01A1E08A1A02
:100820009108A108B10896E007CFBFEF8B1691049D
:10083000A104B10409F044F794E0FECE93E0FFEF89
:100840008F169104A104B10489F084F062E17AE783
:1008500080E090E0A70196010E94FC2F49015A0117
:10086000E1E08E1A9108A108B10894E085B5887F6F
:10087000892B85BD2FEF3FEFA9014114510461047D
:10088000710409F4F0CED601AA0FBB1FA301920197
:100890000E941B3028EE33E040E050E00E94DA2F47
:1008A000DACE1F920F920FB60F9211242F933F931F
:1008B0004F935F936F937F938F939F93AF93BF9368
:1008C000EF93FF9380913C0190913D01A0913E01F7
:1008D000B0913F01892B8A2B8B2BD1F190913B0159
:1008E000E0913901F0913A018081892780838091DC
:1008F0003C0190913D01A0913E01B0913F0118163D
:1009000019061A061B069CF480913C0190913D014A
:10091000A0913E01B0913F010197A109B1098093D7
:100920003C0190933D01A0933E01B0933F01FF91A4
:10093000EF91BF91AF919F918F917F916F915F9157
:100940004F913F912F910F900FBE0F901F901895D0
:1009500080910001E2E7F0E0E4919FEF90930001C5
:10096000E13049F028F0E23061F00E948900DFCFE9
:1009700010926E00FACF90916F009D7F90936F0060
:10098000F4CF909170009D7F9093700091E09093D0
:10099000B0009091B100987F94609093B100109254
:1009A000B300E3CF1F920F920FB60F9211242F9333
:1009B0003F938F939F93AF93BF9380913101909119
:1009C0003201A0913301B09134013091300123E024
:1009D000230F2D3758F50196A11DB11D209330012D
:1009E0008093310190933201A0933301B09334018D
:1009F0008091350190913601A0913701B091380175
:100A00000196A11DB11D8093350190933601A093ED
:100A10003701B0933801BF91AF919F918F913F9172
:100A20002F910F900FBE0F901F90189526E8230F5F
:100A30000296A11DB11DD2CF789484B5826084BD89
:100A400084B5816084BD85B5826085BD85B58160D2
:100A500085BD80916E00816080936E001092810050
:100A6000809181008260809381008091810081600B
:100A700080938100809180008160809380008091CC
:100A8000B10084608093B1008091B0008160809358
:100A9000B00080917A00846080937A0080917A001F
:100AA000826080937A0080917A00816080937A00DE
:100AB00080917A00806880937A001092C1008091C2
:100AC000460187FD07C061E00E94D1008091460188
:100AD0000E94890081E0809341016091470120914B
:100AE000480130914901613509F16150C9F070E068
:100AF0008FEF90E50E94C62FF9014091440150917B
:100B00004501CF01821B930B8417950760F4408148
:100B1000469FC001479F900D112490833196EDCFE1
:100B200070E060E0E9CF81E5809347018091480162
:100B300090914901892B11F00E942701C0E0D0E07B
:100B40000CE611EF26E033E441E751E060E070E0AD
:100B500088E00E94100265E970E080E090E00E9469
:100B6000DE010EE01DE528E033E44FE951E060E0EE
:100B700070E088E00E94100267E970E080E090E099
:100B80000E94DE010EE01DE528E033E442ED51E075
:100B900060E070E088E00E94100267E970E080E0A9
:100BA00090E00E94DE010EE01DE528E033E44DEE0A
:100BB00051E060E070E088E00E94100267E970E0B8
:100BC00080E090E00E94DE010EE01DE528E033E4C5
:100BD0004AE252E060E070E088E00E94100267E9BB
:100BE00070E080E090E00E94DE016BE470E080E065
:100BF00090E00E94DE010EE01DE528E033E44AE2C9
:100C000052E060E070E088E00E94100267E970E066
:100C100080E090E00E94DE016BE470E080E090E014
:100C20000E94DE010EE01DE528E833E44AE252E0CE
:100C300060E070E088E00E9410026FE271E080E006
:100C400090E00E94DE010EE01DE528E033E44AE278
:100C500052E060E070E088E00E94100267E970E016
:100C600080E090E00E94DE010EE01DE528E033E424
:100C70004EE652E060E070E088E00E94100267E912
:100C800070E080E090E00E94DE0102E514E72AE2D5
:100C900034E44AE252E060E070E088E00E94100232
:100CA00065EF72E080E090E00E94DE010EE01DE55D
:100CB00028E033E44AE252E060E070E088E00E941D
:100CC000100267E970E080E090E00E94DE010EE033
:100CD0001DE528E033E44EE652E060E070E088E095
:100CE0000E94100267E970E080E090E00E94DE015F
:100CF0000EE01DE528E033E44AE252E060E070E0F7
:100D000088E00E94100267E970E080E090E00E94B5
:100D1000DE010EE01DE528E033E44DEE51E060E039
:100D200070E088E00E94100267E970E080E090E0E7
:100D30000E94DE010EE01DE528E033E442ED51E0C3
:100D400060E070E088E00E94100267E970E080E0F7
:100D500090E00E94DE016BE470E080E090E00E9491
:100D6000DE010EE01DE528E033E442ED51E060E0F5
:100D700070E088E00E94100267E970E080E090E097
:100D80000E94DE016BE470E080E090E00E94DE01F2
:100D90000EE01DE528E833E442ED51E060E070E04C
:100DA00088E00E9410026FE271E080E090E00E9413
:100DB000DE010EE01DE528E033E44DEE51E060E099
:100DC00070E088E00E94100267E970E080E090E047
:100DD0000E94DE010EE01DE528E033E442ED51E023
:100DE00060E070E088E00E94100267E970E080E057
:100DF00090E00E94DE0102E514E72AE234E441E7D4
:100E000051E060E070E088E00E94100265EF72E05F
:100E100080E090E00E94DE010EE01DE528E033E472
:100E200041E751E060E070E088E00E94100267E96D
:100E300070E080E090E00E94DE010EE01DE528E019
:100E400033E44FE951E060E070E088E00E94100276
:100E500067E970E080E090E00E94DE010EE01DE5B1
:100E600028E033E442ED51E060E070E088E00E9469
:100E7000100267E970E080E090E00E94DE010EE081
:100E80001DE528E033E44DEE51E060E070E088E0DD
:100E90000E94100267E970E080E090E00E94DE01AD
:100EA0000EE01DE528E033E44AE252E060E070E045
:100EB00088E00E94100267E970E080E090E00E9404
:100EC000DE016BE470E080E090E00E94DE010EE065
:100ED0001DE528E033E44AE252E060E070E088E09B
:100EE0000E94100267E970E080E090E00E94DE015D
:100EF0006BE470E080E090E00E94DE010EE01DE512
:100F000028E833E44AE252E060E070E088E00E94C2
:100F100010026FE271E080E090E00E94DE010EE0DE
:100F20001DE528E033E44AE252E060E070E088E04A
:100F30000E94100267E970E080E090E00E94DE010C
:100F40000EE01DE528E033E44EE652E060E070E09C
:100F500088E00E94100267E970E080E090E00E9463
:100F6000DE0102E514E72AE234E44AE252E060E0FE
:100F700070E088E00E94100265EF72E080E090E08F
:100F80000E94DE010EE01DE528E033E44AE252E073
:100F900060E070E088E00E94100267E970E080E0A5
:100FA00090E00E94DE010EE01DE528E033E44EE60D
:100FB00052E060E070E088E00E94100267E970E0B3
:100FC00080E090E00E94DE010EE01DE528E033E4C1
:100FD0004AE252E060E070E088E00E94100267E9B7
:100FE00070E080E090E00E94DE010EE01DE528E068
:100FF00033E44DEE51E060E070E088E00E941002C2
:1010000067E970E080E090E00E94DE010EE01DE5FF
:1010100028E033E442ED51E060E070E088E00E94B7
:10102000100267E970E080E090E00E94DE016BE46E
:1010300070E080E090E00E94DE010EE01DE528E017
:1010400033E442ED51E060E070E088E00E9410027D
:1010500067E970E080E090E00E94DE016BE470E000
:1010600080E090E00E94DE010EE01DE528E833E418
:1010700042ED51E060E070E088E00E9410026FE213
:1010800071E080E090E00E94DE010EE01DE528E0C6
:1010900033E44DEE51E060E070E088E00E94100221
:1010A00067E970E080E090E00E94DE010EE01DE55F
:1010B00028E033E442ED51E060E070E088E00E9417
:1010C000100267E970E080E090E00E94DE0102E536
:1010D00014E72AE234E441E751E060E070E088E0A0
:1010E0000E94100265EF72E080E090E00E94DE0155
:1010F0000EE01DE528E033E441E751E060E070E0F8
:1011000088E00E94100267E970E080E090E00E94B1
:10111000DE010EE01DE528E033E44FE951E060E038
:1011200070E088E00E94100267E970E080E090E0E3
:101130000E94DE0106E91BE82CEC32E442ED51E0AE
:1011400060E070E088E00E94100261E770E080E0FB
:1011500090E00E94DE0165E270E080E090E00E9495
:10116000DE010EE01DE528E033E44DEE51E060E0E5
:1011700070E088E00E94100267E970E080E090E093
:101180000E94DE010EE01DE528E033E44AE252E071
:1011900060E070E088E00E94100267E970E080E0A3
:1011A00090E00E94DE016BE470E080E090E00E943D
:1011B000DE010EE01DE528E033E44AE252E060E0A3
:1011C00070E088E00E94100267E970E080E090E043
:1011D0000E94DE016BE470E080E090E00E94DE019E
:1011E0000EE01DE528E833E44AE252E060E070E0FA
:1011F00088E00E9410026FE271E080E090E00E94BF
:10120000DE010EE01DE528E033E44AE252E060E052
:1012100070E088E00E94100267E970E080E090E0F2
:101220000E94DE010EE01DE528E033E44EE652E0C8
:1012300060E070E088E00E94100267E970E080E002
:1012400090E00E94DE0102E514E72AE234E44AE27B
:1012500052E060E070E088E00E94100265EF72E00A
:1012600080E090E00E94DE010EE01DE528E033E41E
:101270004AE252E060E070E088E00E94100267E914
:1012800070E080E090E00E94DE010EE01DE528E0C5
:1012900033E44EE652E060E070E088E00E94100225
:1012A00067E970E080E090E00E94DE010EE01DE55D
:1012B00028E033E44AE252E060E070E088E00E9417
:1012C000100267E970E080E090E00E94DE010EE02D
:1012D0001DE528E033E44DEE51E060E070E088E089
:1012E0000E94100267E970E080E090E00E94DE0159
:1012F0000EE01DE528E033E442ED51E060E070E0EF
:1013000088E00E94100267E970E080E090E00E94AF
:10131000DE016BE470E080E090E00E94DE010EE010
:101320001DE528E033E442ED51E060E070E088E044
:101330000E94100267E970E080E090E00E94DE0108
:101340006BE470E080E090E00E94DE010EE01DE5BD
:1013500028E833E442ED51E060E070E088E00E946C
:1013600010026FE271E080E090E00E94DE010EE08A
:101370001DE528E033E44DEE51E060E070E088E0E8
:101380000E94100267E970E080E090E00E94DE01B8
:101390000EE01DE528E033E442ED51E060E070E04E
:1013A00088E00E94100267E970E080E090E00E940F
:1013B000DE0102E514E72AE234E441E751E060E0AF
:1013C00070E088E00E94100265EF72E080E090E03B
:1013D0000E94DE010EE01DE528E033E441E751E024
:1013E00060E070E088E00E94100267E970E080E051
:1013F00090E00E94DE010EE01DE528E033E44FE9B5
:1014000051E060E070E088E00E94100267E970E05F
:1014100080E090E00E94DE010EE01DE528E033E46C
:1014200042ED51E060E070E088E00E94100267E960
:1014300070E080E090E00E94DE010EE01DE528E013
:1014400033E44DEE51E060E070E088E00E9410026D
:1014500067E970E080E090E00E94DE010EE01DE5AB
:1014600028E033E44AE252E060E070E088E00E9465
:10147000100267E970E080E090E00E94DE016BE41A
:1014800070E080E090E00E94DE010EE01DE528E0C3
:1014900033E44AE252E060E070E088E00E9410022B
:1014A00067E970E080E090E00E94DE016BE470E0AC
:1014B00080E090E00E94DE010EE01DE528E833E4C4
:1014C0004AE252E060E070E088E00E9410026FE2C1
:1014D00071E080E090E00E94DE010EE01DE528E072
:1014E00033E44AE252E060E070E088E00E941002DB
:1014F00067E970E080E090E00E94DE010EE01DE50B
:1015000028E033E44EE652E060E070E088E00E94BC
:10151000100267E970E080E090E00E94DE0102E5E1
:1015200014E72AE234E44AE252E060E070E088E046
:101530000E94100265EF72E080E090E00E94DE0100
:101540000EE01DE528E033E44AE252E060E070E09E
:1015500088E00E94100267E970E080E090E00E945D
:10156000DE010EE01DE528E033E44EE652E060E0E7
:1015700070E088E00E94100267E970E080E090E08F
:101580000E94DE010EE01DE528E033E44AE252E06D
:1015900060E070E088E00E94100267E970E080E09F
:1015A00090E00E94DE010EE01DE528E033E44DEE00
:1015B00051E060E070E088E00E94100267E970E0AE
:1015C00080E090E00E94DE010EE01DE528E033E4BB
:1015D00042ED51E060E070E088E00E94100267E9AF
:1015E00070E080E090E00E94DE016BE470E080E05B
:1015F00090E00E94DE010EE01DE528E033E442EDBC
:1016000051E060E070E088E00E94100267E970E05D
:1016100080E090E00E94DE016BE470E080E090E00A
:101620000E94DE010EE01DE528E833E442ED51E0C2
:1016300060E070E088E00E9410026FE271E080E0FC
:1016400090E00E94DE010EE01DE528E033E44DEE5F
:1016500051E060E070E088E00E94100267E970E00D
:1016600080E090E00E94DE010EE01DE528E033E41A
:1016700042ED51E060E070E088E00E94100267E90E
:1016800070E080E090E00E94DE0100EB18E629E9BE
:1016900034E441E751E060E070E088E00E9410022D
:1016A00063E575E080E090E00E94DE0168E779E0A4
:1016B00080E090E00E94DE010EE01DE528E033E4CA
:1016C00042ED51E060E070E088E00E94100267E9BE
:1016D00070E080E090E00E94DE016BE470E080E06A
:1016E00090E00E94DE010EE01DE528E033E442EDCB
:1016F00051E060E070E088E00E94100267E970E06D
:1017000080E090E00E94DE016BE470E080E090E019
:101710000E94DE010EE01DE528E833E442ED51E0D1
:1017200060E070E088E00E9410026FE271E080E00B
:1017300090E00E94DE010EE01DE528E033E44DEE6E
:1017400051E060E070E088E00E94100267E970E01C
:1017500080E090E00E94DE010EE01DE528E033E429
:1017600041E751E060E070E088E00E94100267E924
:1017700070E080E090E00E94DE010EE01DE528E0D0
:1017800033E442ED51E060E070E088E00E94100236
:1017900067E970E080E090E00E94DE010EE01DE568
:1017A00028E033E44FE951E060E070E088E00E9417
:1017B000100267E970E080E090E00E94DE016BE4D7
:1017C00070E080E090E00E94DE010EE01DE528E080
:1017D00033E44FE951E060E070E088E00E941002DD
:1017E00067E970E080E090E00E94DE016BE470E069
:1017F00080E090E00E94DE010EE01DE528E833E481
:101800004FE951E060E070E088E00E9410026FE272
:1018100071E080E090E00E94DE010EE01DE528E02E
:1018200033E442ED51E060E070E088E00E94100295
:1018300067E970E080E090E00E94DE010EE01DE5C7
:1018400028E033E44DE551E060E070E088E00E947C
:10185000100267E970E080E090E00E94DE010EE097
:101860001DE528E033E44FE951E060E070E088E0F6
:101870000E94100267E970E080E090E00E94DE01C3
:101880000EE01DE528E033E441E751E060E070E060
:1018900088E00E94100267E970E080E090E00E941A
:1018A000DE016BE470E080E090E00E94DE010EE07B
:1018B0001DE528E033E441E751E060E070E088E0B6
:1018C0000E94100267E970E080E090E00E94DE0173
:1018D0006BE470E080E090E00E94DE010EE01DE528
:1018E00028E833E441E751E060E070E088E00E94DE
:1018F00010026FE271E080E090E00E94DE010EE0F5
:101900001DE528E033E441E751E060E070E088E065
:101910000E94100267E970E080E090E00E94DE0122
:101920000EE01DE528E033E445E151E060E070E0C1
:1019300088E00E94100267E970E080E090E00E9479
:10194000DE010EE01DE528E033E44FE951E060E000
:1019500070E088E00E94100267E970E080E090E0AB
:101960000E94DE010EE01DE528E033E441E751E08E
:1019700060E070E088E00E94100267E970E080E0BB
:1019800090E00E94DE016BE470E080E090E00E9455
:10199000DE010EE01DE528E033E441E751E060E0C0
:1019A00070E088E00E94100267E970E080E090E05B
:1019B0000E94DE016BE470E080E090E00E94DE01B6
:1019C0000EE01DE528E833E441E751E060E070E017
:1019D00088E00E9410026FE271E080E090E00E94D7
:1019E000DE010EE01DE528E033E44DE551E060E066
:1019F00070E088E00E94100267E970E080E090E00B
:101A00000E94DE010EE01DE528E033E441E751E0ED
:101A100060E070E088E00E94100267E970E080E01A
:101A200090E00E94DE010EE01DE528E033E44FE97E
:101A300051E060E070E088E00E94100267E970E029
:101A400080E090E00E94DE010EE01DE528E033E436
:101A500042ED51E060E070E088E00E94100267E92A
:101A600070E080E090E00E94DE016BE470E080E0D6
:101A700090E00E94DE010EE01DE528E033E442ED37
:101A800051E060E070E088E00E94100267E970E0D9
:101A900080E090E00E94DE016BE470E080E090E086
:101AA0000E94DE010EE01DE528E833E442ED51E03E
:101AB00060E070E088E00E9410026FE271E080E078
:101AC00090E00E94DE010EE01DE528E033E44DEEDB
:101AD00051E060E070E088E00E94100267E970E089
:101AE00080E090E00E94DE010EE01DE528E033E496
:101AF00041E751E060E070E088E00E94100267E991
:101B000070E080E090E00E94DE010EE01DE528E03C
:101B100033E442ED51E060E070E088E00E941002A2
:101B200067E970E080E090E00E94DE010EE01DE5D4
:101B300028E033E44FE951E060E070E088E00E9483
:101B4000100267E970E080E090E00E94DE016BE443
:101B500070E080E090E00E94DE010EE01DE528E0EC
:101B600033E44FE951E060E070E088E00E94100249
:101B700067E970E080E090E00E94DE016BE470E0D5
:101B800080E090E00E94DE010EE01DE528E833E4ED
:101B90004FE951E060E070E088E00E9410026FE2DF
:101BA00071E080E090E00E94DE010EE01DE528E09B
:101BB00033E44AE252E060E070E088E00E94100204
:101BC00067E970E080E090E00E94DE010EE01DE534
:101BD00028E033E44DE551E060E070E088E00E94E9
:101BE000100267E970E080E090E00E94DE010EE004
:101BF0001DE528E033E44FE951E060E070E088E063
:101C00000E94100267E970E080E090E00E94DE012F
:101C10000EE01DE528E033E441E751E060E070E0CC
:101C200088E00E94100267E970E080E090E00E9486
:101C3000DE016BE470E080E090E00E94DE010EE0E7
:101C40001DE528E033E441E751E060E070E088E022
:101C50000E94100267E970E080E090E00E94DE01DF
:101C60006BE470E080E090E00E94DE010EE01DE594
:101C700028E033E441E751E060E070E088E00E9452
:101C8000100267E970E080E090E00E94DE0167E901
:101C900070E080E090E00E94DE010EE01DE528E0AB
:101CA00033E441E751E060E070E088E00E94100218
:101CB00067E970E080E090E00E94DE010EE01DE543
:101CC00028E033E445E151E060E070E088E00E9404
:101CD000100267E970E080E090E00E94DE010EE013
:101CE0001DE528E033E44FE951E060E070E088E072
:101CF0000E94100267E970E080E090E00E94DE013F
:101D00000EE01DE528E033E441E751E060E070E0DB
:101D100088E00E94100267E970E080E090E00E9495
:101D2000DE016BE470E080E090E00E94DE010EE0F6
:101D30001DE528E033E441E751E060E070E088E031
:101D40000E94100267E970E080E090E00E94DE01EE
:101D50006BE470E080E090E00E94DE010EE01DE5A3
:101D600028E833E441E751E060E070E088E00E9459
:101D700010026FE271E080E090E00E94DE010EE070
:101D80001DE528E033E44DE551E060E070E088E0D7
:101D90000E94100267E970E080E090E00E94DE019E
:101DA0000EE01DE528E033E441E751E060E070E03B
:101DB00088E00E94100267E970E080E090E00E94F5
:101DC000DE010EE01DE528E033E44FE951E060E07C
:101DD00070E088E00E94100267E970E080E090E027
:101DE0000E94DE010EE01DE528E033E441E751E00A
:101DF00060E070E088E00E94100267E970E080E037
:101E000090E00E94DE010EE01DE528E033E441E7AA
:101E100051E060E070E088E00E94100267E970E045
:101E200080E090E00E94DE010EE01DE528E033E452
:101E300041E751E060E070E088E00E94100267E94D
:101E400070E080E090E00E94DE010EE01DE528E0F9
:101E500033E441E751E060E070E088E00E94100266
:101E600067E970E080E090E00E94DE010EE01DE591
:101E700028E833E441E751E060E070E088E00E9448
:101E800010026FE271E080E090E00E94DE010EE05F
:101E90001DE528E033E441E751E060E070E088E0D0
:101EA0000E94100267E970E080E090E00E94DE018D
:101EB0000EE01DE528E033E441E751E060E070E02A
:101EC00088E00E94100267E970E080E090E00E94E4
:101ED000DE010EE01DE528E033E44FE951E060E06B
:101EE00070E088E00E94100267E970E080E090E016
:101EF0000E94DE010EE01DE528E833E442ED51E0EA
:101F000060E070E088E00E9410026FE271E080E023
:101F100090E00E94DE0102E514E72AE234E442ED9B
:101F200051E060E070E088E00E94100265EF72E02E
:101F300080E090E00E94DE010EE01DE528E833E439
:101F40004AE252E060E070E088E00E9410026FE236
:101F500071E080E090E00E94DE010EE01DE528E0E7
:101F600033E441E751E060E070E088E00E94100255
:101F700067E970E080E090E00E94DE010EE01DE580
:101F800028E033E441E751E060E070E088E00E943F
:101F9000100267E970E080E090E00E94DE010EE050
:101FA0001DE528E833E441E751E060E070E088E0B7
:101FB0000E9410026FE271E080E090E00E94DE017A
:101FC0000EE01DE528E033E441E751E060E070E019
:101FD00088E00E94100267E970E080E090E00E94D3
:101FE000DE010EE01DE528E033E441E751E060E06A
:101FF00070E088E00E94100267E970E080E090E005
:102000000E94DE010EE01DE528E033E442ED51E0E0
:1020100060E070E088E00E94100267E970E080E014
:1020200090E00E94DE010EE01DE528E833E44FE970
:1020300051E060E070E088E00E9410026FE271E021
:1020400080E090E00E94DE0102E514E72AE234E439
:1020500041E751E060E070E088E00E94100265EF27
:1020600072E080E090E00E94DE010EE01DE528E8CD
:1020700033E44DE551E060E070E088E00E9410023A
:102080006FE271E080E090E00E94DE010EE01DE56D
:1020900028E033E447E351E060E070E088E00E942C
:1020A000100267E970E080E090E00E94DE0109ED37
:1020B00012EA2EE634E445E151E060E070E088E0A9
:1020C0000E94100264E274E080E090E00E94DE0171
:1020D0000EE01DE528E033E445E151E060E070E00A
:1020E00088E00E94100267E970E080E090E00E94C2
:1020F000DE010EE01DE528E833E445E151E060E053
:1021000070E088E00E9410026FE271E080E090E0F1
:102110000E94DE010EE01DE528E033E445E151E0D8
:1021200060E070E088E00E94100267E970E080E003
:1021300090E00E94DE010EE01DE528E033E447E375
:1021400051E060E070E088E00E94100267E970E012
:1021500080E090E00E94DE010EE01DE528E033E41F
:102160004DE551E060E070E088E00E94100267E910
:1021700070E080E090E00E94DE010EE01DE528E8BE
:1021800033E441E751E060E070E088E00E94100233
:102190006FE271E080E090E00E94DE010EE01DE55C
:1021A00028E033E447E351E060E070E088E00E941B
:1021B000100267E970E080E090E00E94DE0102E535
:1021C00014E72AE234E445E151E060E070E088E0A1
:1021D0000E94100265EF72E080E090E00E94DE0154
:1021E0000EE01DE528E833E443EE52E060E070E0E5
:1021F00088E00E9410026FE271E080E090E00E94AF
:10220000DE010EE01DE528E033E44EE652E060E03A
:1022100070E088E00E94100267E970E080E090E0E2
:102220000E94DE010EE01DE528E034E44AE252E0BF
:1022300060E070E088E00E9410026EE572E080E0ED
:1022400090E00E94DE010EE01DE528E033E445E168
:1022500051E060E070E088E00E94100267E970E001
:1022600080E090E00E94DE010EE01DE528E033E40E
:1022700041E751E060E070E088E00E94100267E909
:1022800070E080E090E00E94DE010EE01DE528E0B5
:1022900033E441E751E060E070E088E00E94100222
:1022A00067E970E080E090E00E94DE010EE01DE54D
:1022B00028E033E441E751E060E070E088E00E940C
:1022C000100267E970E080E090E00E94DE010EE01D
:1022D0001DE528E033E441E751E060E070E088E08C
:1022E0000E94100267E970E080E090E00E94DE0149
:1022F0000EE01DE528E833E441E751E060E070E0DE
:1023000088E00E9410026FE271E080E090E00E949D
:10231000DE010EE01DE528E033E441E751E060E036
:1023200070E088E00E94100267E970E080E090E0D1
:102330000E94DE010EE01DE528E033E441E751E0B4
:1023400060E070E088E00E94100267E970E080E0E1
:1023500090E00E94DE010EE01DE528E033E44FE945
:1023600051E060E070E088E00E94100267E970E0F0
:1023700080E090E00E94DE010EE01DE528E833E4F5
:1023800042ED51E060E070E088E00E9410026FE2F0
:1023900071E080E090E00E94DE0102E514E72AE2AD
:1023A00034E442ED51E060E070E088E00E94100209
:1023B00065EF72E080E090E00E94DE010EE01DE536
:1023C00028E833E44AE252E060E070E088E00E94EE
:1023D00010026FE271E080E090E00E94DE010EE00A
:1023E0001DE528E033E441E751E060E070E088E07B
:1023F0000E94100267E970E080E090E00E94DE0138
:102400000EE01DE528E033E441E751E060E070E0D4
:1024100088E00E94100267E970E080E090E00E948E
:10242000DE010EE01DE528E833E441E751E060E01D
:1024300070E088E00E9410026FE271E080E090E0BE
:102440000E94DE010EE01DE528E033E441E751E0A3
:1024500060E070E088E00E94100267E970E080E0D0
:1024600090E00E94DE010EE01DE528E033E441E744
:1024700051E060E070E088E00E94100267E970E0DF
:1024800080E090E00E94DE010EE01DE528E033E4EC
:1024900042ED51E060E070E088E00E94100267E9E0
:1024A00070E080E090E00E94DE010EE01DE528E88B
:1024B00033E44FE951E060E070E088E00E941002F0
:1024C0006FE271E080E090E00E94DE0102E514E737
:1024D0002AE234E441E751E060E070E088E00E94E5
:1024E000100265EF72E080E090E00E94DE010EE0F5
:1024F0001DE528E833E44DE551E060E070E088E058
:102500000E9410026FE271E080E090E00E94DE0124
:102510000EE01DE528E033E447E351E060E070E0C1
:1025200088E00E94100267E970E080E090E00E947D
:10253000DE0109ED12EA2EE634E445E151E060E007
:1025400070E088E00E94100264E274E080E090E0B5
:102550000E94DE010EE01DE528E033E445E151E094
:1025600060E070E088E00E94100267E970E080E0BF
:1025700090E00E94DE010EE01DE528E833E445E12D
:1025800051E060E070E088E00E9410026FE271E0CC
:1025900080E090E00E94DE010EE01DE528E033E4DB
:1025A00045E151E060E070E088E00E94100267E9D8
:1025B00070E080E090E00E94DE010EE01DE528E082
:1025C00033E442ED51E060E070E088E00E941002E8
:1025D00067E970E080E090E00E94DE010EE01DE51A
:1025E00028E033E44FE951E060E070E088E00E94C9
:1025F000100267E970E080E090E00E94DE0100EBED
:1026000018E629E934E441E751E060E070E088E051
:102610000E94100263E575E080E090E00E94DE0118
:102620000EE01DE528E033E441E751E060E070E0B2
:1026300088E00E94100267E970E080E090E00E946C
:10264000DE010EE01DE528E033E44FE951E060E0F3
:1026500070E088E00E94100267E970E080E090E09E
:102660000E94DE010EE01DE528E033E441E751E081
:1026700060E070E088E00E94100267E970E080E0AE
:1026800090E00E94DE010EE01DE528E833E442ED13
:1026900051E060E070E088E00E9410026FE271E0BB
:1026A00080E090E00E94DE010EE01DE528E033E4CA
:1026B0004FE951E060E070E088E00E94100267E9B5
:1026C00070E080E090E00E94DE010EE01DE528E071
:1026D00033E441E751E060E070E088E00E941002DE
:1026E00067E970E080E090E00E94DE010EE01DE509
:1026F00028E833E445E151E060E070E088E00E94C2
:1027000010026FE271E080E090E00E94DE010EE0D6
:102710001DE528E033E442ED51E060E070E088E040
:102720000E94100267E970E080E090E00E94DE0104
:102730000EE01DE528E033E44FE951E060E070E091
:1027400088E00E94100267E970E080E090E00E945B
:10275000DE0106E91BE82CEC33E441E751E060E0E0
:1027600070E088E00E94100266EC71E080E090E08A
:102770000E94DE010EE01DE528E833E44FE951E058
:1027800060E070E088E00E9410026FE271E080E09B
:1027900090E00E94DE010EE01DE528E033E441E711
:1027A00051E060E070E088E00E94100267E970E0AC
:1027B00080E090E00E94DE010EE01DE528E033E4B9
:1027C0004FE951E060E070E088E00E94100267E9A4
:1027D00070E080E090E00E94DE010EE01DE528E060
:1027E00033E441E751E060E070E088E00E941002CD
:1027F00067E970E080E090E00E94DE010EE01DE5F8
:1028000028E833E44FE951E060E070E088E00E949E
:1028100010026FE271E080E090E00E94DE010EE0C5
:102820001DE528E833E442ED51E060E070E088E027
:102830000E9410026FE271E080E090E00E94DE01F1
:102840000EE01DE528E833E447E351E060E070E086
:1028500088E00E9410026FE271E080E090E00E9448
:10286000DE010EE01DE528E033E442ED51E060E0DA
:1028700070E088E00E94100267E970E080E090E07C
:102880000E94DE010EE01DE528E033E44FE951E04F
:1028900060E070E088E00E94100267E970E080E08C
:1028A00090E00E94DE010EE01DE528E033E441E700
:1028B00051E060E070E088E00E94100267E970E09B
:1028C00080E090E00E94DE010EE01DE528E033E4A8
:1028D00041E751E060E070E088E00E94100267E9A3
:1028E00070E080E090E00E94DE010EE01DE528E04F
:1028F00033E441E751E060E070E088E00E941002BC
:1029000067E970E080E090E00E94DE010EE01DE5E6
:1029100028E833E44FE951E060E070E088E00E948D
:1029200010026FE271E080E090E00E94DE010EE0B4
:102930001DE528E033E441E751E060E070E088E025
:102940000E94100267E970E080E090E00E94DE01E2
:102950000EE01DE528E033E44FE951E060E070E06F
:1029600088E00E94100267E970E080E090E00E9439
:10297000DE010EE01DE528E033E442ED51E060E0C9
:1029800070E088E00E94100267E970E080E090E06B
:102990000E94DE010EE01DE528E833E44FE951E036
:1029A00060E070E088E00E9410026FE271E080E079
:1029B00090E00E94DE010EE01DE528E833E441E7E7
:1029C00051E060E070E088E00E9410026FE271E088
:1029D00080E090E00E94DE010EE01DE528E833E48F
:1029E00045E151E060E070E088E00E9410026FE293
:1029F00071E080E090E00E94DE010EE01DE528E03D
:102A000033E442ED51E060E070E088E00E941002A3
:102A100067E970E080E090E00E94DE010EE01DE5D5
:102A200028E033E44FE951E060E070E088E00E9484
:102A3000100267E970E080E090E00E94DE0106E9A4
:102A40001BE82CEC33E441E751E060E070E088E003
:102A50000E94100266EC71E080E090E00E94DE01CE
:102A60000EE01DE528E833E44FE951E060E070E056
:102A700088E00E9410026FE271E080E090E00E9426
:102A8000DE010EE01DE528E033E441E751E060E0BF
:102A900070E088E00E94100267E970E080E090E05A
:102AA0000E94DE010EE01DE528E033E44FE951E02D
:102AB00060E070E088E00E94100267E970E080E06A
:102AC00090E00E94DE010EE01DE528E033E441E7DE
:102AD00051E060E070E088E00E94100267E970E079
:102AE00080E090E00E94DE010EE01DE528E833E47E
:102AF0004FE951E060E070E088E00E9410026FE270
:102B000071E080E090E00E94DE010EE01DE528E823
:102B100033E442ED51E060E070E088E00E94100292
:102B20006FE271E080E090E00E94DE010EE01DE5C2
:102B300028E833E44AE252E060E070E088E00E9476
:102B400010026FE271E080E090E00E94DE010EE092
:102B50001DE528E033E44DEE51E060E070E088E0F0
:102B60000E94100267E970E080E090E00E94DE01C0
:102B70000EE01DE528E033E442ED51E060E070E056
:102B800088E00E94100267E970E080E090E00E9417
:102B9000DE010EE01DE528E033E441E751E060E0AE
:102BA00070E088E00E94100267E970E080E090E049
:102BB0000E94DE010EE01DE528E033E441E751E02C
:102BC00060E070E088E00E94100267E970E080E059
:102BD00090E00E94DE010EE01DE528E033E441E7CD
:102BE00051E060E070E088E00E94100267E970E068
:102BF00080E090E00E94DE010EE01DE528E833E46D
:102C00004FE951E060E070E088E00E9410026FE25E
:102C100071E080E090E00E94DE010EE01DE528E01A
:102C200033E441E751E060E070E088E00E94100288
:102C300067E970E080E090E00E94DE010EE01DE5B3
:102C400028E033E44FE951E060E070E088E00E9462
:102C5000100267E970E080E090E00E94DE010EE083
:102C60001DE528E033E442ED51E060E070E088E0EB
:102C70000E94100267E970E080E090E00E94DE01AF
:102C80000EE01DE528E833E44FE951E060E070E034
:102C900088E00E9410026FE271E080E090E00E9404
:102CA000DE010EE01DE528E833E441E751E060E095
:102CB00070E088E00E9410026FE271E080E090E036
:102CC0000E94DE010EE01DE528E833E44FE951E003
:102CD00060E070E088E00E9410026FE271E080E046
:102CE00090E00E94DE010EE01DE528E833E44FE9A4
:102CF00051E060E070E088E00E9410026FE271E055
:102D000080E090E00E94DE010EE01DE528E033E463
:102D10004FE951E060E070E088E00E94100267E94E
:102D200070E080E090E00E94DE010EE01DE528E00A
:102D300033E442ED51E060E070E088E00E94100270
:102D400067E970E080E090E00E94DE010EE01DE5A2
:102D500028E033E445E151E060E070E088E00E9463
:102D6000100267E970E080E090E00E94DE010EE072
:102D70001DE528E833E445E151E060E070E088E0DB
:102D80000E9410026FE271E080E090E00E94DE019C
:102D90000EE01DE528E833E44AE252E060E070E02E
:102DA00088E00E9410026FE271E080E090E00E94F3
:102DB000DE010EE01DE528E833E44AE252E060E07F
:102DC00070E088E00E9410026FE271E080E090E025
:102DD0000E94DE010EE01DE528E033E44AE252E005
:102DE00060E070E088E00E94100267E970E080E037
:102DF00090E00E94DE010EE01DE528E833E44AE29F
:102E000052E060E070E088E00E9410026FE271E042
:102E100080E090E00E94DE010EE01DE528E833E44A
:102E20004FE951E060E070E088E00E9410026FE23C
:102E300071E080E090E00E94DE010EE01DE528E8F0
:102E400033E44FE951E060E070E088E00E94100256
:102E50006FE271E080E090E00E94DE010EE01DE58F
:102E600028E033E44FE951E060E070E088E00E9440
:102E7000100267E970E080E090E00E94DE010EE061
:102E80001DE528E033E442ED51E060E070E088E0C9
:102E90000E94100267E970E080E090E00E94DE018D
:102EA0000EE01DE528E033E445E151E060E070E02C
:102EB00088E00E94100267E970E080E090E00E94E4
:102EC000DE010EE01DE528E833E445E151E060E075
:102ED00070E088E00E9410026FE271E080E090E014
:102EE0000E94DE010EE01DE528E033E447E351E0F7
:102EF00060E070E088E00E94100267E970E080E026
:102F000090E00E94DE0106E91BE82CE434E445E190
:102F100051E060E070E088E00E9410026DE873E02C
:102F200080E090E00E94DE010EE01DE528E833E439
:102F300042ED51E060E070E088E00E9410026FE234
:102F400071E080E090E00E94DE010EE01DE528E8DF
:102F500033E442ED51E060E070E088E00E9410024E
:102F60006FE271E080E090E00E94DE010EE01DE57E
:102F700028E033E442ED51E060E070E088E00E9438
:102F8000100267E970E080E090E00E94DE010EE050
:102F90001DE528E033E44AE252E060E070E088E0BA
:102FA0000E94100267E970E080E090E00E94DE017C
:102FB0000EE01DE528E033E442ED51E060E070E012
:102FC00088E00E94100267E970E080E090E00E94D3
:102FD000DE010EE01DE528E833E44FE951E060E052
:102FE00070E088E00E9410026FE271E080E090E003
:102FF0000E94DE010EE01DE528E833E44AE252E0DB
:1030000060E070E088E00E9410026FE271E080E012
:1030100090E00E94DE010EE01DE528E833E44AE27C
:1030200052E060E070E088E00E9410026FE271E020
:1030300080E090E00E94DE010EE01DE528E033E430
:103040004AE252E060E070E088E00E94100267E926
:1030500070E080E090E00E94DE010EE01DE528E8CF
:1030600033E44AE252E060E070E088E00E9410023F
:103070006FE271E080E090E00E94DE010EE01DE56D
:1030800028E833E44FE951E060E070E088E00E9416
:1030900010026FE271E080E090E00E94DE010EE03D
:1030A0001DE528E833E44FE951E060E070E088E096
:1030B0000E9410026FE271E080E090E00E94DE0169
:1030C0000EE01DE528E033E44FE951E060E070E0F8
:1030D00088E00E94100267E970E080E090E00E94C2
:1030E000DE010EE01DE528E033E442ED51E060E052
:1030F00070E088E00E94100267E970E080E090E0F4
:103100000E94DE010EE01DE528E033E445E151E0D8
:1031100060E070E088E00E94100267E970E080E003
:1031200090E00E94DE010EE01DE528E833E445E171
:1031300051E060E070E088E00E9410026FE271E010
:1031400080E090E00E94DE010EE01DE528E033E41F
:1031500047E351E060E070E088E00E94100267E918
:1031600070E080E090E00E94DE0102E514E72AE2D0
:1031700034E445E151E060E070E088E00E94100234
:1031800065EF72E080E090E00E94DE010EE01DE558
:1031900028E033E445E151E060E070E088E00E941F
:1031A000100267E970E080E090E00E94DE010EE02E
:1031B0001DE528E033E441E751E060E070E088E09D
:1031C0000E94100267E970E080E090E00E94DE015A
:1031D0000EE01DE528E033E441E751E060E070E0F7
:1031E00088E00E94100267E970E080E090E00E94B1
:1031F000DE010EE01DE528E033E441E751E060E048
:1032000070E088E00E94100267E970E080E090E0E2
:103210000E94DE010EE01DE528E033E441E751E0C5
:1032200060E070E088E00E94100267E970E080E0F2
:1032300090E00E94DE010EE01DE528E833E441E75E
:1032400051E060E070E088E00E9410026FE271E0FF
:1032500080E090E00E94DE010EE01DE528E033E40E
:1032600041E751E060E070E088E00E94100267E909
:1032700070E080E090E00E94DE010EE01DE528E0B5
:1032800033E441E751E060E070E088E00E94100222
:1032900067E970E080E090E00E94DE010EE01DE54D
:1032A00028E033E44FE951E060E070E088E00E94FC
:1032B000100267E970E080E090E00E94DE010EE01D
:1032C0001DE528E833E442ED51E060E070E088E07D
:1032D0000E9410026FE271E080E090E00E94DE0147
:1032E00002E514E72AE234E442ED51E060E070E0E8
:1032F00088E00E94100265EF72E080E090E00E949A
:10330000DE010EE01DE528E833E44AE252E060E029
:1033100070E088E00E9410026FE271E080E090E0CF
:103320000E94DE010EE01DE528E033E441E751E0B4
:1033300060E070E088E00E94100267E970E080E0E1
:1033400090E00E94DE010EE01DE528E033E441E755
:1033500051E060E070E088E00E94100267E970E0F0
:1033600080E090E00E94DE010EE01DE528E833E4F5
:1033700041E751E060E070E088E00E9410026FE2F7
:1033800071E080E090E00E94DE010EE01DE528E0A3
:1033900033E441E751E060E070E088E00E94100211
:1033A00067E970E080E090E00E94DE010EE01DE53C
:1033B00028E033E441E751E060E070E088E00E94FB
:1033C000100267E970E080E090E00E94DE010EE00C
:1033D0001DE528E033E442ED51E060E070E088E074
:1033E0000E94100267E970E080E090E00E94DE0138
:1033F0000EE01DE528E833E44FE951E060E070E0BD
:1034000088E00E9410026FE271E080E090E00E948C
:10341000DE0102E514E72AE234E441E751E060E02E
:1034200070E088E00E94100265EF72E080E090E0BA
:103430000E94DE010EE01DE528E833E44DE551E091
:1034400060E070E088E00E9410026FE271E080E0CE
:1034500090E00E94DE010EE01DE528E033E447E342
:1034600051E060E070E088E00E94100267E970E0DF
:1034700080E090E00E94DE0109ED12EA2EE634E4DD
:1034800045E151E060E070E088E00E94100264E2F3
:1034900074E080E090E00E94DE010EE01DE528E08F
:1034A00033E445E151E060E070E088E00E94100202
:1034B00067E970E080E090E00E94DE010EE01DE52B
:1034C00028E833E445E151E060E070E088E00E94E4
:1034D00010026FE271E080E090E00E94DE010EE0F9
:1034E0001DE528E033E445E151E060E070E088E06C
:1034F0000E94100267E970E080E090E00E94DE0127
:103500000EE01DE528E033E447E351E060E070E0C1
:1035100088E00E94100267E970E080E090E00E947D
:10352000DE010EE01DE528E033E44DE551E060E00A
:1035300070E088E00E94100267E970E080E090E0AF
:103540000E94DE010EE01DE528E833E441E751E08A
:1035500060E070E088E00E9410026FE271E080E0BD
:1035600090E00E94DE010EE01DE528E033E447E331
:1035700051E060E070E088E00E94100267E970E0CE
:1035800080E090E00E94DE0102E514E72AE234E4E4
:1035900045E151E060E070E088E00E94100265EFD4
:1035A00072E080E090E00E94DE010EE01DE528E878
:1035B00033E443EE52E060E070E088E00E941002E5
:1035C0006FE271E080E090E00E94DE010EE01DE518
:1035D00028E033E44EE652E060E070E088E00E94CC
:1035E000100267E970E080E090E00E94DE010EE0EA
:1035F0001DE528E034E44AE252E060E070E088E053
:103600000E9410026EE572E080E090E00E94DE0110
:103610000EE01DE528E033E445E151E060E070E0B4
:1036200088E00E94100267E970E080E090E00E946C
:10363000DE010EE01DE528E033E441E751E060E003
:1036400070E088E00E94100267E970E080E090E09E
:103650000E94DE010EE01DE528E033E441E751E081
:1036600060E070E088E00E94100267E970E080E0AE
:1036700090E00E94DE010EE01DE528E033E441E722
:1036800051E060E070E088E00E94100267E970E0BD
:1036900080E090E00E94DE010EE01DE528E033E4CA
:1036A00041E751E060E070E088E00E94100267E9C5
:1036B00070E080E090E00E94DE010EE01DE528E869
:1036C00033E441E751E060E070E088E00E941002DE
:1036D0006FE271E080E090E00E94DE010EE01DE507
:1036E00028E033E441E751E060E070E088E00E94C8
:1036F000100267E970E080E090E00E94DE010EE0D9
:103700001DE528E033E441E751E060E070E088E047
:103710000E94100267E970E080E090E00E94DE0104
:103720000EE01DE528E033E44FE951E060E070E091
:1037300088E00E94100267E970E080E090E00E945B
:10374000DE010EE01DE528E833E442ED51E060E0E3
:1037500070E088E00E9410026FE271E080E090E08B
:103760000E94DE0102E514E72AE234E442ED51E072
:1037700060E070E088E00E94100265EF72E080E097
:1037800090E00E94DE010EE01DE528E833E44AE205
:1037900052E060E070E088E00E9410026FE271E0A9
:1037A00080E090E00E94DE010EE01DE528E033E4B9
:1037B00041E751E060E070E088E00E94100267E9B4
:1037C00070E080E090E00E94DE010EE01DE528E060
:1037D00033E441E751E060E070E088E00E941002CD
:1037E00067E970E080E090E00E94DE010EE01DE5F8
:1037F00028E833E441E751E060E070E088E00E94AF
:1038000010026FE271E080E090E00E94DE010EE0C5
:103810001DE528E033E441E751E060E070E088E036
:103820000E94100267E970E080E090E00E94DE01F3
:103830000EE01DE528E033E441E751E060E070E090
:1038400088E00E94100267E970E080E090E00E944A
:10385000DE010EE01DE528E033E442ED51E060E0DA
:1038600070E088E00E94100267E970E080E090E07C
:103870000E94DE010EE01DE528E833E44FE951E047
:1038800060E070E088E00E9410026FE271E080E08A
:1038900090E00E94DE0102E514E72AE234E441E709
:1038A00051E060E070E088E00E94100265EF72E095
:1038B00080E090E00E94DE010EE01DE528E833E4A0
:1038C0004DE551E060E070E088E00E9410026FE298
:1038D00071E080E090E00E94DE010EE01DE528E04E
:1038E00033E447E351E060E070E088E00E941002BA
:1038F00067E970E080E090E00E94DE0109ED12EAE5
:103900002EE634E445E151E060E070E088E00E949A
:10391000100264E274E080E090E00E94DE010EE0BC
:103920001DE528E033E445E151E060E070E088E027
:103930000E94100267E970E080E090E00E94DE01E2
:103940000EE01DE528E833E445E151E060E070E079
:1039500088E00E9410026FE271E080E090E00E9437
:10396000DE010EE01DE528E033E445E151E060E0D2
:1039700070E088E00E94100267E970E080E090E06B
:103980000E94DE010EE01DE528E033E442ED51E047
:1039900060E070E088E00E94100267E970E080E07B
:1039A00090E00E94DE010EE01DE528E033E44FE9DF
:1039B00051E060E070E088E00E94100267E970E08A
:1039C00080E090E00E94DE0102E514E72AEA34E498
:1039D00041E751E060E070E088E00E9410026BEE89
:1039E00075E080E090E00E94DE010EE01DE528E831
:1039F00033E442ED51E060E070E088E00E941002A4
:103A00006FE271E080E090E00E94DE010EE01DE5D3
:103A100028E833E442ED51E060E070E088E00E9485
:103A200010026FE271E080E090E00E94DE010EE0A3
:103A30001DE528E833E44FE951E060E070E088E0FC
:103A40000E9410026FE271E080E090E00E94DE01CF
:103A50000EE01DE528E833E445E151E060E070E068
:103A600088E00E9410026FE271E080E090E00E9426
:103A7000DE010EE01DE528E033E442ED51E060E0B8
:103A800070E088E00E94100267E970E080E090E05A
:103A90000E94DE010EE01DE528E033E44FE951E02D
:103AA00060E070E088E00E94100267E970E080E06A
:103AB00090E00E94DE0106E91BE82CEC33E441E7CC
:103AC00051E060E070E088E00E94100266EC71E076
:103AD00080E090E00E94DE010EE01DE528E833E47E
:103AE0004FE951E060E070E088E00E9410026FE270
:103AF00071E080E090E00E94DE010EE01DE528E02C
:103B000033E441E751E060E070E088E00E94100299
:103B100067E970E080E090E00E94DE010EE01DE5C4
:103B200028E033E44FE951E060E070E088E00E9473
:103B3000100267E970E080E090E00E94DE010EE094
:103B40001DE528E033E441E751E060E070E088E003
:103B50000E94100267E970E080E090E00E94DE01C0
:103B60000EE01DE528E833E44FE951E060E070E045
:103B700088E00E9410026FE271E080E090E00E9415
:103B8000DE010EE01DE528E833E442ED51E060E09F
:103B900070E088E00E9410026FE271E080E090E047
:103BA0000E94DE010EE01DE528E833E447E351E022
:103BB00060E070E088E00E9410026FE271E080E057
:103BC00090E00E94DE010EE01DE528E033E442EDC6
:103BD00051E060E070E088E00E94100267E970E068
:103BE00080E090E00E94DE010EE01DE528E033E475
:103BF0004FE951E060E070E088E00E94100267E960
:103C000070E080E090E00E94DE010EE01DE528E01B
:103C100033E441E751E060E070E088E00E94100288
:103C200067E970E080E090E00E94DE010EE01DE5B3
:103C300028E033E441E751E060E070E088E00E9472
:103C4000100267E970E080E090E00E94DE010EE083
:103C50001DE528E033E441E751E060E070E088E0F2
:103C60000E94100267E970E080E090E00E94DE01AF
:103C70000EE01DE528E833E44FE951E060E070E034
:103C800088E00E9410026FE271E080E090E00E9404
:103C9000DE010EE01DE528E033E441E751E060E09D
:103CA00070E088E00E94100267E970E080E090E038
:103CB0000E94DE010EE01DE528E033E44FE951E00B
:103CC00060E070E088E00E94100267E970E080E048
:103CD00090E00E94DE010EE01DE528E033E442EDB5
:103CE00051E060E070E088E00E94100267E970E057
:103CF00080E090E00E94DE010EE01DE528E833E45C
:103D00004FE951E060E070E088E00E9410026FE24D
:103D100071E080E090E00E94DE010EE01DE528E801
:103D200033E441E751E060E070E088E00E94100277
:103D30006FE271E080E090E00E94DE010EE01DE5A0
:103D400028E833E445E151E060E070E088E00E945B
:103D500010026FE271E080E090E00E94DE010EE070
:103D60001DE528E033E442ED51E060E070E088E0DA
:103D70000E94100267E970E080E090E00E94DE019E
:103D80000EE01DE528E033E44FE951E060E070E02B
:103D900088E00E94100267E970E080E090E00E94F5
:103DA000DE0106E91BE82CEC33E441E751E060E07A
:103DB00070E088E00E94100266EC71E080E090E024
:103DC0000E94DE010EE01DE528E833E44FE951E0F2
:103DD00060E070E088E00E9410026FE271E080E035
:103DE00090E00E94DE010EE01DE528E033E441E7AB
:103DF00051E060E070E088E00E94100267E970E046
:103E000080E090E00E94DE010EE01DE528E033E452
:103E10004FE951E060E070E088E00E94100267E93D
:103E200070E080E090E00E94DE010EE01DE528E0F9
:103E300033E441E751E060E070E088E00E94100266
:103E400067E970E080E090E00E94DE010EE01DE591
:103E500028E833E44FE951E060E070E088E00E9438
:103E600010026FE271E080E090E00E94DE010EE05F
:103E70001DE528E833E442ED51E060E070E088E0C1
:103E80000E9410026FE271E080E090E00E94DE018B
:103E90000EE01DE528E833E44AE252E060E070E01D
:103EA00088E00E9410026FE271E080E090E00E94E2
:103EB000DE010EE01DE528E033E44DEE51E060E068
:103EC00070E088E00E94100267E970E080E090E016
:103ED0000E94DE010EE01DE528E033E442ED51E0F2
:103EE00060E070E088E00E94100267E970E080E026
:103EF00090E00E94DE010EE01DE528E033E441E79A
:103F000051E060E070E088E00E94100267E970E034
:103F100080E090E00E94DE010EE01DE528E033E441
:103F200041E751E060E070E088E00E94100267E93C
:103F300070E080E090E00E94DE010EE01DE528E0E8
:103F400033E441E751E060E070E088E00E94100255
:103F500067E970E080E090E00E94DE010EE01DE580
:103F600028E833E44FE951E060E070E088E00E9427
:103F700010026FE271E080E090E00E94DE010EE04E
:103F80001DE528E033E441E751E060E070E088E0BF
:103F90000E94100267E970E080E090E00E94DE017C
:103FA0000EE01DE528E033E44FE951E060E070E009
:103FB00088E00E94100267E970E080E090E00E94D3
:103FC000DE010EE01DE528E033E442ED51E060E063
:103FD00070E088E00E94100267E970E080E090E005
:103FE0000E94DE010EE01DE528E833E44FE951E0D0
:103FF00060E070E088E00E9410026FE271E080E013
:1040000090E00E94DE010EE01DE528E833E441E780
:1040100051E060E070E088E00E9410026FE271E021
:1040200080E090E00E94DE010EE01DE528E033E430
:1040300042ED51E060E070E088E00E94100267E924
:1040400070E080E090E00E94DE016BE470E080E0D0
:1040500090E00E94DE010EE01DE528E033E442ED31
:1040600051E060E070E088E00E94100267E970E0D3
:1040700080E090E00E94DE016BE470E080E090E080
:104080000E94DE010EE01DE528E833E442ED51E038
:1040900060E070E088E00E9410026FE271E080E072
:1040A00090E00E94DE010EE01DE528E033E44DEED5
:1040B00051E060E070E088E00E94100267E970E083
:1040C00080E090E00E94DE010EE01DE528E033E490
:1040D00041E751E060E070E088E00E94100267E98B
:1040E00070E080E090E00E94DE010EE01DE528E037
:1040F00033E442ED51E060E070E088E00E9410029D
:1041000067E970E080E090E00E94DE010EE01DE5CE
:1041100028E033E44FE951E060E070E088E00E947D
:10412000100267E970E080E090E00E94DE016BE43D
:1041300070E080E090E00E94DE010EE01DE528E0E6
:1041400033E44FE951E060E070E088E00E94100243
:1041500067E970E080E090E00E94DE016BE470E0CF
:1041600080E090E00E94DE010EE01DE528E833E4E7
:104170004FE951E060E070E088E00E9410026FE2D9
:1041800071E080E090E00E94DE010EE01DE528E095
:1041900033E442ED51E060E070E088E00E941002FC
:1041A00067E970E080E090E00E94DE010EE01DE52E
:1041B00028E033E44DE551E060E070E088E00E94E3
:1041C000100267E970E080E090E00E94DE010EE0FE
:1041D0001DE528E033E44FE951E060E070E088E05D
:1041E0000E94100267E970E080E090E00E94DE012A
:1041F0000EE01DE528E033E441E751E060E070E0C7
:1042000088E00E94100267E970E080E090E00E9480
:10421000DE016BE470E080E090E00E94DE010EE0E1
:104220001DE528E033E441E751E060E070E088E01C
:104230000E94100267E970E080E090E00E94DE01D9
:104240006BE470E080E090E00E94DE010EE01DE58E
:1042500028E833E441E751E060E070E088E00E9444
:1042600010026FE271E080E090E00E94DE010EE05B
:104270001DE528E033E441E751E060E070E088E0CC
:104280000E94100267E970E080E090E00E94DE0189
:104290000EE01DE528E033E445E151E060E070E028
:1042A00088E00E94100267E970E080E090E00E94E0
:1042B000DE010EE01DE528E033E44FE951E060E067
:1042C00070E088E00E94100267E970E080E090E012
:1042D0000E94DE010EE01DE528E033E441E751E0F5
:1042E00060E070E088E00E94100267E970E080E022
:1042F00090E00E94DE016BE470E080E090E00E94BC
:10430000DE010EE01DE528E033E441E751E060E026
:1043100070E088E00E94100267E970E080E090E0C1
:104320000E94DE016BE470E080E090E00E94DE011C
:104330000EE01DE528E833E441E751E060E070E07D
:1043400088E00E9410026FE271E080E090E00E943D
:10435000DE010EE01DE528E033E44DE551E060E0CC
:1043600070E088E00E94100267E970E080E090E071
:104370000E94DE010EE01DE528E033E441E751E054
:1043800060E070E088E00E94100267E970E080E081
:1043900090E00E94DE010EE01DE528E033E44FE9E5
:1043A00051E060E070E088E00E94100267E970E090
:1043B00080E090E00E94DE010EE01DE528E033E49D
:1043C00042ED51E060E070E088E00E94100267E991
:1043D00070E080E090E00E94DE016BE470E080E03D
:1043E00090E00E94DE010EE01DE528E033E442ED9E
:1043F00051E060E070E088E00E94100267E970E040
:1044000080E090E00E94DE016BE470E080E090E0EC
:104410000E94DE010EE01DE528E833E442ED51E0A4
:1044200060E070E088E00E9410026FE271E080E0DE
:1044300090E00E94DE010EE01DE528E033E44DEE41
:1044400051E060E070E088E00E94100267E970E0EF
:1044500080E090E00E94DE010EE01DE528E033E4FC
:1044600041E751E060E070E088E00E94100267E9F7
:1044700070E080E090E00E94DE010EE01DE528E0A3
:1044800033E442ED51E060E070E088E00E94100209
:1044900067E970E080E090E00E94DE010EE01DE53B
:1044A00028E033E44FE951E060E070E088E00E94EA
:1044B000100267E970E080E090E00E94DE016BE4AA
:1044C00070E080E090E00E94DE010EE01DE528E053
:1044D00033E44FE951E060E070E088E00E941002B0
:1044E00067E970E080E090E00E94DE016BE470E03C
:1044F00080E090E00E94DE010EE01DE528E833E454
:104500004FE951E060E070E088E00E9410026FE245
:1045100071E080E090E00E94DE010EE01DE528E001
:1045200033E44AE252E060E070E088E00E9410026A
:1045300067E970E080E090E00E94DE010EE01DE59A
:1045400028E033E44DE551E060E070E088E00E944F
:10455000100267E970E080E090E00E94DE010EE06A
:104560001DE528E033E44FE951E060E070E088E0C9
:104570000E94100267E970E080E090E00E94DE0196
:104580000EE01DE528E033E441E751E060E070E033
:1045900088E00E94100267E970E080E090E00E94ED
:1045A000DE016BE470E080E090E00E94DE010EE04E
:1045B0001DE528E033E441E751E060E070E088E089
:1045C0000E94100267E970E080E090E00E94DE0146
:1045D0006BE470E080E090E00E94DE010EE01DE5FB
:1045E00028E833E441E751E060E070E088E00E94B1
:1045F00010026FE271E080E090E00E94DE010EE0C8
:104600001DE528E033E441E751E060E070E088E038
:104610000E94100267E970E080E090E00E94DE01F5
:104620000EE01DE528E033E445E151E060E070E094
:1046300088E00E94100267E970E080E090E00E944C
:10464000DE010EE01DE528E033E44FE951E060E0D3
:1046500070E088E00E94100267E970E080E090E07E
:104660000E94DE010EE01DE528E033E441E751E061
:1046700060E070E088E00E94100267E970E080E08E
:1046800090E00E94DE016BE470E080E090E00E9428
:10469000DE010EE01DE528E033E441E751E060E093
:1046A00070E088E00E94100267E970E080E090E02E
:1046B0000E94DE016BE470E080E090E00E94DE0189
:1046C0000EE01DE528E833E441E751E060E070E0EA
:1046D00088E00E9410026FE271E080E090E00E94AA
:1046E000DE010EE01DE528E033E44DE551E060E039
:1046F00070E088E00E94100267E970E080E090E0DE
:104700000E94DE010EE01DE528E033E441E751E0C0
:1047100060E070E088E00E94100267E970E080E0ED
:1047200090E00E94DE010EE01DE528E033E44FE951
:1047300051E060E070E088E00E94100267E970E0FC
:1047400080E090E00E94DE010EE01DE528E833E401
:1047500042ED51E060E070E088E00E9410026FE2FC
:1047600071E080E090E00E94DE010EE01DE528E0AF
:1047700033E442ED51E060E070E088E00E94100216
:1047800067E970E080E090E00E94DE010EE01DE548
:1047900028E033E442ED51E060E070E088E00E9400
:1047A000100267E970E080E090E00E94DE0106E917
:1047B0001BE82CEC33E442ED51E060E070E088E06F
:1047C0000E94100266EC71E080E090E00E94DE0141
:1047D0000EE01DE528E833E44FE951E060E070E0C9
:1047E00088E00E9410026FE271E080E090E00E9499
:1047F000DE010EE01DE528E033E44FE951E060E022
:1048000070E088E00E94100267E970E080E090E0CC
:104810000E94DE010EE01DE528E033E44FE951E09F
:1048200060E070E088E00E94100267E970E080E0DC
:1048300090E00E94DE010EE01DE528E033E441E750
:1048400051E060E070E088E00E94100267E970E0EB
:1048500080E090E00E94DE010EE01DE528E833E4F0
:104860004FE951E060E070E088E00E9410026FE2E2
:1048700071E080E090E00E94DE010EE01DE528E896
:1048800033E442ED51E060E070E088E00E94100205
:104890006FE271E080E090E00E94DE010EE01DE535
:1048A00028E833E441E751E060E070E088E00E94EE
:1048B00010026FE271E080E090E00E94DE010EE005
:1048C0001DE528E033E441E751E060E070E088E076
:1048D0000E94100267E970E080E090E00E94DE0133
:1048E0000EE01DE528E033E441E751E060E070E0D0
:1048F00088E00E94100267E970E080E090E00E948A
:10490000DE010EE01DE528E033E441E751E060E020
:1049100070E088E00E94100267E970E080E090E0BB
:104920000E94DE010EE01DE528E033E441E751E09E
:1049300060E070E088E00E94100267E970E080E0CB
:1049400090E00E94DE010EE01DE528E033E441E73F
:1049500051E060E070E088E00E94100267E970E0DA
:1049600080E090E00E94DE010EE01DE528E833E4DF
:1049700047E351E060E070E088E00E9410026FE2DF
:1049800071E080E090E00E94DE010EE01DE528E08D
:1049900033E447E351E060E070E088E00E941002F9
:1049A00067E970E080E090E00E94DE010EE01DE526
:1049B00028E033E44DE551E060E070E088E00E94DB
:1049C000100267E970E080E090E00E94DE010EE0F6
:1049D0001DE528E033E44DE551E060E070E088E05B
:1049E0000E94100267E970E080E090E00E94DE0122
:1049F0000EE01DE528E833E441E751E060E070E0B7
:104A000088E00E9410026FE271E080E090E00E9476
:104A1000DE010EE01DE528E833E44FE951E060E0F7
:104A200070E088E00E9410026FE271E080E090E0A8
:104A30000E94DE010EE01DE528E833E442ED51E07E
:104A400060E070E088E00E9410026FE271E080E0B8
:104A500090E00E94DE010EE01DE528E033E442ED27
:104A600051E060E070E088E00E94100267E970E0C9
:104A700080E090E00E94DE010EE01DE528E033E4D6
:104A800042ED51E060E070E088E00E94100267E9CA
:104A900070E080E090E00E94DE0106E91BE82CEC6B
:104AA00033E442ED51E060E070E088E00E941002E3
:104AB00066EC71E080E090E00E94DE010EE01DE512
:104AC00028E833E44FE951E060E070E088E00E94BC
:104AD00010026FE271E080E090E00E94DE010EE0E3
:104AE0001DE528E033E44FE951E060E070E088E044
:104AF0000E94100267E970E080E090E00E94DE0111
:104B00000EE01DE528E033E44AE252E060E070E0A8
:104B100088E00E94100267E970E080E090E00E9467
:104B2000DE010EE01DE528E033E44AE252E060E0F9
:104B300070E088E00E94100267E970E080E090E099
:104B40000E94DE0165E270E080E090E00E94DE01FC
:104B500009ED12EA2EE633E44DEE51E060E070E03C
:104B600088E00E94100269E071E080E090E00E941D
:104B7000DE010EE01DE528E833E442ED51E060E09F
:104B800070E088E00E9410026FE271E080E090E047
:104B90000E94DE010EE01DE528E833E441E751E024
:104BA00060E070E088E00E9410026FE271E080E057
:104BB00090E00E94DE010EE01DE528E033E441E7CD
:104BC00051E060E070E088E00E94100267E970E068
:104BD00080E090E00E94DE010EE01DE528E033E475
:104BE00041E751E060E070E088E00E94100267E970
:104BF00070E080E090E00E94DE010EE01DE528E01C
:104C000033E441E751E060E070E088E00E94100288
:104C100067E970E080E090E00E94DE010EE01DE5B3
:104C200028E033E441E751E060E070E088E00E9472
:104C3000100267E970E080E090E00E94DE010EE083
:104C40001DE528E033E441E751E060E070E088E0F2
:104C50000E94100267E970E080E090E00E94DE01AF
:104C60000EE01DE528E833E44AE252E060E070E03F
:104C700088E00E9410026FE271E080E090E00E9404
:104C8000DE010EE01DE528E033E44AE252E060E098
:104C900070E088E00E94100267E970E080E090E038
:104CA0000E94DE010EE01DE528E833E441E751E013
:104CB00060E070E088E00E9410026FE271E080E046
:104CC00090E00E94DE010EE01DE528E833E441E7B4
:104CD00051E060E070E088E00E9410026FE271E055
:104CE00080E090E00E94DE010EE01DE528E833E45C
:104CF0004DE551E060E070E088E00E9410026FE254
:104D000071E080E090E00E94DE0168E779E080E0F9
:104D100090E00E94DE010EE01DE528E833E44FE953
:104D200051E060E070E088E00E9410026FE271E004
:104D300080E090E00E94DE010EE01DE528E833E40B
:104D40004FE951E060E070E088E00E9410026FE2FD
:104D500071E080E090E00E94DE010EE01DE528E0B9
:104D600033E44FE951E060E070E088E00E94100217
:104D700067E970E080E090E00E94DE010EE01DE552
:104D800028E033E442ED51E060E070E088E00E940A
:104D9000100267E970E080E090E00E94DE010EE022
:104DA0001DE528E033E445E151E060E070E088E093
:104DB0000E94100267E970E080E090E00E94DE014E
:104DC0000EE01DE528E833E445E151E060E070E0E5
:104DD00088E00E9410026FE271E080E090E00E94A3
:104DE000DE010EE01DE528E833E44AE252E060E02F
:104DF00070E088E00E9410026FE271E080E090E0D5
:104E00000E94DE010EE01DE528E833E44AE252E0AC
:104E100060E070E088E00E9410026FE271E080E0E4
:104E200090E00E94DE010EE01DE528E033E44AE256
:104E300052E060E070E088E00E94100267E970E0F4
:104E400080E090E00E94DE010EE01DE528E833E4FA
:104E50004AE252E060E070E088E00E9410026FE2F7
:104E600071E080E090E00E94DE010EE01DE528E8A0
:104E700033E44FE951E060E070E088E00E94100206
:104E80006FE271E080E090E00E94DE010EE01DE53F
:104E900028E833E44FE951E060E070E088E00E94E8
:104EA00010026FE271E080E090E00E94DE010EE00F
:104EB0001DE528E033E44FE951E060E070E088E070
:104EC0000E94100267E970E080E090E00E94DE013D
:104ED0000EE01DE528E033E442ED51E060E070E0D3
:104EE00088E00E94100267E970E080E090E00E9494
:104EF000DE010EE01DE528E033E445E151E060E02D
:104F000070E088E00E94100267E970E080E090E0C5
:104F10000E94DE010EE01DE528E833E445E151E0A2
:104F200060E070E088E00E9410026FE271E080E0D3
:104F300090E00E94DE010EE01DE528E033E447E347
:104F400051E060E070E088E00E94100267E970E0E4
:104F500080E090E00E94DE0106E91BE82CE434E4E6
:104F600045E151E060E070E088E00E9410026DE8E9
:104F700073E080E090E00E94DE010EE01DE528E88D
:104F800033E442ED51E060E070E088E00E941002FE
:104F90006FE271E080E090E00E94DE010EE01DE52E
:104FA00028E833E442ED51E060E070E088E00E94E0
:104FB00010026FE271E080E090E00E94DE010EE0FE
:104FC0001DE528E033E442ED51E060E070E088E068
:104FD0000E94100267E970E080E090E00E94DE012C
:104FE0000EE01DE528E033E44AE252E060E070E0C4
:104FF00088E00E94100267E970E080E090E00E9483
:10500000DE010EE01DE528E033E442ED51E060E012
:1050100070E088E00E94100267E970E080E090E0B4
:105020000E94DE010EE01DE528E833E44FE951E07F
:1050300060E070E088E00E9410026FE271E080E0C2
:1050400090E00E94DE010EE01DE528E833E44AE22C
:1050500052E060E070E088E00E9410026FE271E0D0
:1050600080E090E00E94DE010EE01DE528E833E4D8
:105070004AE252E060E070E088E00E9410026FE2D5
:1050800071E080E090E00E94DE010EE01DE528E086
:1050900033E44AE252E060E070E088E00E941002EF
:1050A00067E970E080E090E00E94DE010EE01DE51F
:1050B00028E833E44AE252E060E070E088E00E94D1
:1050C00010026FE271E080E090E00E94DE010EE0ED
:1050D0001DE528E833E44FE951E060E070E088E046
:1050E0000E9410026FE271E080E090E00E94DE0119
:1050F0000EE01DE528E833E44FE951E060E070E0A0
:1051000088E00E9410026FE271E080E090E00E946F
:10511000DE010EE01DE528E033E44FE951E060E0F8
:1051200070E088E00E94100267E970E080E090E0A3
:105130000E94DE010EE01DE528E033E442ED51E07F
:1051400060E070E088E00E94100267E970E080E0B3
:1051500090E00E94DE010EE01DE528E033E445E129
:1051600051E060E070E088E00E94100267E970E0C2
:1051700080E090E00E94DE010EE01DE528E833E4C7
:1051800045E151E060E070E088E00E9410026FE2CB
:1051900071E080E090E00E94DE010EE01DE528E075
:1051A00033E447E351E060E070E088E00E941002E1
:1051B00067E970E080E090E00E94DE010EE01DE50E
:1051C00028E833E442ED51E060E070E088E00E94BE
:1051D00010026FE271E080E090E00E94DE010EE0DC
:1051E0001DE528E833E442ED51E060E070E088E03E
:1051F0000E9410026FE271E080E090E00E94DE0108
:105200000EE01DE528E033E445E151E060E070E0A8
:1052100088E00E94100267E970E080E090E00E9460
:10522000DE010EE01DE528E033E44FE951E060E0E7
:1052300070E088E00E94100267E970E080E090E092
:105240000E94DE010EE01DE528E833E445E151E06F
:1052500060E070E088E00E9410026FE271E080E0A0
:1052600090E00E94DE010EE01DE528E033E442ED0F
:1052700051E060E070E088E00E94100267E970E0B1
:1052800080E090E00E94DE010EE01DE528E033E4BE
:105290004FE951E060E070E088E00E94100267E9A9
:1052A00070E080E090E00E94DE0106E91BE82CEC53
:1052B00033E441E751E060E070E088E00E941002D2
:1052C00066EC71E080E090E00E94DE010EE01DE5FA
:1052D00028E833E44FE951E060E070E088E00E94A4
:1052E00010026FE271E080E090E00E94DE010EE0CB
:1052F0001DE528E033E441E751E060E070E088E03C
:105300000E94100267E970E080E090E00E94DE01F8
:105310000EE01DE528E033E44FE951E060E070E085
:1053200088E00E94100267E970E080E090E00E944F
:10533000DE010EE01DE528E033E441E751E060E0E6
:1053400070E088E00E94100267E970E080E090E081
:105350000E94DE010EE01DE528E833E44FE951E04C
:1053600060E070E088E00E9410026FE271E080E08F
:1053700090E00E94DE010EE01DE528E833E442EDF6
:1053800051E060E070E088E00E9410026FE271E09E
:1053900080E090E00E94DE010EE01DE528E833E4A5
:1053A00047E351E060E070E088E00E9410026FE2A5
:1053B00071E080E090E00E94DE010EE01DE528E053
:1053C00033E442ED51E060E070E088E00E941002BA
:1053D00067E970E080E090E00E94DE010EE01DE5EC
:1053E00028E033E44FE951E060E070E088E00E949B
:1053F000100267E970E080E090E00E94DE010EE0BC
:105400001DE528E033E441E751E060E070E088E02A
:105410000E94100267E970E080E090E00E94DE01E7
:105420000EE01DE528E033E441E751E060E070E084
:1054300088E00E94100267E970E080E090E00E943E
:10544000DE010EE01DE528E033E441E751E060E0D5
:1054500070E088E00E94100267E970E080E090E070
:105460000E94DE010EE01DE528E833E44FE951E03B
:1054700060E070E088E00E9410026FE271E080E07E
:1054800090E00E94DE010EE01DE528E033E441E7F4
:1054900051E060E070E088E00E94100267E970E08F
:1054A00080E090E00E94DE010EE01DE528E033E49C
:1054B0004FE951E060E070E088E00E94100267E987
:1054C00070E080E090E00E94DE010EE01DE528E043
:1054D00033E442ED51E060E070E088E00E941002A9
:1054E00067E970E080E090E00E94DE010EE01DE5DB
:1054F00028E833E44FE951E060E070E088E00E9482
:1055000010026FE271E080E090E00E94DE010EE0A8
:105510001DE528E833E441E751E060E070E088E011
:105520000E9410026FE271E080E090E00E94DE01D4
:105530000EE01DE528E833E445E151E060E070E06D
:1055400088E00E9410026FE271E080E090E00E942B
:10555000DE010EE01DE528E033E442ED51E060E0BD
:1055600070E088E00E94100267E970E080E090E05F
:105570000E94DE010EE01DE528E033E44FE951E032
:1055800060E070E088E00E94100267E970E080E06F
:1055900090E00E94DE0106E91BE82CEC33E441E7D1
:1055A00051E060E070E088E00E94100266EC71E07B
:1055B00080E090E00E94DE010EE01DE528E833E483
:1055C0004FE951E060E070E088E00E9410026FE275
:1055D00071E080E090E00E94DE010EE01DE528E031
:1055E00033E441E751E060E070E088E00E9410029F
:1055F00067E970E080E090E00E94DE010EE01DE5CA
:1056000028E033E44FE951E060E070E088E00E9478
:10561000100267E970E080E090E00E94DE010EE099
:105620001DE528E033E441E751E060E070E088E008
:105630000E94100267E970E080E090E00E94DE01C5
:105640000EE01DE528E833E44FE951E060E070E04A
:1056500088E00E9410026FE271E080E090E00E941A
:10566000DE010EE01DE528E833E442ED51E060E0A4
:1056700070E088E00E9410026FE271E080E090E04C
:105680000E94DE010EE01DE528E833E44AE252E024
:1056900060E070E088E00E9410026FE271E080E05C
:1056A00090E00E94DE010EE01DE528E033E44DEEBF
:1056B00051E060E070E088E00E94100267E970E06D
:1056C00080E090E00E94DE010EE01DE528E033E47A
:1056D00042ED51E060E070E088E00E94100267E96E
:1056E00070E080E090E00E94DE010EE01DE528E021
:1056F00033E441E751E060E070E088E00E9410028E
:1057000067E970E080E090E00E94DE010EE01DE5B8
:1057100028E033E441E751E060E070E088E00E9477
:10572000100267E970E080E090E00E94DE010EE088
:105730001DE528E033E441E751E060E070E088E0F7
:105740000E94100267E970E080E090E00E94DE01B4
:105750000EE01DE528E833E44FE951E060E070E039
:1057600088E00E9410026FE271E080E090E00E9409
:10577000DE010EE01DE528E033E441E751E060E0A2
:1057800070E088E00E94100267E970E080E090E03D
:105790000E94DE010EE01DE528E033E44FE951E010
:1057A00060E070E088E00E94100267E970E080E04D
:1057B00090E00E94DE010EE01DE528E033E442EDBA
:1057C00051E060E070E088E00E94100267E970E05C
:1057D00080E090E00E94DE010EE01DE528E833E461
:1057E0004FE951E060E070E088E00E9410026FE253
:1057F00071E080E090E00E94DE010EE01DE528E807
:1058000033E441E751E060E070E088E00E9410027C
:105810006FE271E080E090E00E94DE010EE01DE5A5
:1058200028E833E445E151E060E070E088E00E9460
:1058300010026FE271E080E090E00E94DE010EE075
:105840001DE528E033E442ED51E060E070E088E0DF
:105850000E94100267E970E080E090E00E94DE01A3
:105860000EE01DE528E033E44FE951E060E070E030
:1058700088E00E94100267E970E080E090E00E94FA
:10588000DE0106E91BE82CEC33E441E751E060E07F
:1058900070E088E00E94100266EC71E080E090E029
:1058A0000E94DE010EE01DE528E833E44FE951E0F7
:1058B00060E070E088E00E9410026FE271E080E03A
:1058C00090E00E94DE010EE01DE528E033E441E7B0
:1058D00051E060E070E088E00E94100267E970E04B
:1058E00080E090E00E94DE010EE01DE528E033E458
:1058F0004FE951E060E070E088E00E94100267E943
:1059000070E080E090E00E94DE010EE01DE528E0FE
:1059100033E441E751E060E070E088E00E9410026B
:1059200067E970E080E090E00E94DE010EE01DE596
:1059300028E833E44FE951E060E070E088E00E943D
:1059400010026FE271E080E090E00E94DE010EE064
:105950001DE528E833E442ED51E060E070E088E0C6
:105960000E9410026FE271E080E090E00E94DE0190
:105970000EE01DE528E833E447E351E060E070E025
:1059800088E00E9410026FE271E080E090E00E94E7
:10599000DE010EE01DE528E033E442ED51E060E079
:1059A00070E088E00E94100267E970E080E090E01B
:1059B0000E94DE010EE01DE528E033E44FE951E0EE
:1059C00060E070E088E00E94100267E970E080E02B
:1059D00090E00E94DE010EE01DE528E033E441E79F
:1059E00051E060E070E088E00E94100267E970E03A
:1059F00080E090E00E94DE010EE01DE528E033E447
:105A000041E751E060E070E088E00E94100267E941
:105A100070E080E090E00E94DE010EE01DE528E0ED
:105A200033E441E751E060E070E088E00E9410025A
:105A300067E970E080E090E00E94DE010EE01DE585
:105A400028E833E44FE951E060E070E088E00E942C
:105A500010026FE271E080E090E00E94DE010EE053
:105A60001DE528E033E441E751E060E070E088E0C4
:105A70000E94100267E970E080E090E00E94DE0181
:105A80000EE01DE528E033E44FE951E060E070E00E
:105A900088E00E94100267E970E080E090E00E94D8
:105AA000DE010EE01DE528E033E442ED51E060E068
:105AB00070E088E00E94100267E970E080E090E00A
:105AC0000E94DE010EE01DE528E833E44FE951E0D5
:105AD00060E070E088E00E9410026FE271E080E018
